:020000040800F2
:100000001008002035130008FD010008FF0100085A
:1000100003020008070200080B02000800000000AD
:100020000000000000000000000000000F020008B7
:10003000110200080000000013020008D50E00089D
:100040004F1300084F1300084F1300084F13000808
:100050004F1300084F1300084F1300084F130008F8
:100060004F1300084F1300084F1300084F130008E8
:100070004F1300084F1300084F1300084F130008D8
:100080004F1300084F1300084F1300084F130008C8
:100090003D0A00084F1300084F1300084F130008D3
:1000A0004F1300084F1300084F1300084F130008A8
:1000B000850800084F1300084F1300084F1300086D
:1000C0004F1300084F1300084F1300084F13000888
:1000D0004F130008491000084F1300084F13000881
:1000E0004F1300084F1300084F1300084F13000868
:1000F0004F1300084F1300084F1300084F13000858
:100100004F1300084F1300084F1300084F13000847
:100110004F1300084F1300084F1300084F13000837
:100120004F1300084F1300084F1300084F13000827
:1001300000F002F800F03AF80AA090E8000C8244BF
:100140008344AAF10107DA4501D100F02FF8AFF29C
:10015000090EBAE80F0013F0010F18BFFB1A43F0A5
:1001600001031847443C0000643C0000103A24BFDF
:1001700078C878C1FAD8520724BF30C830C144BF0C
:1001800004680C607047000000230024002500264E
:10019000103A28BF78C1FBD8520728BF30C148BFEA
:1001A0000B6070471FB51FBD10B510BD03F0DEFA20
:1001B0001146FFF7F7FF00F017F803F0FCFA03B45D
:1001C000FFF7F2FF03BC00F0E1FE000010B50020D5
:1001D0000949C87000F01FFE00F00CF900F0CFFDD7
:1001E00001200549C87010BDFFF7F0FF03E04FF490
:1001F000FA7000F033FEFAE73C000020704700BFC1
:10020000FEE700BFFEE700BFFEE700BFFEE7704766
:10021000704770470CB50020019000906C48006852
:1002200040F480306A49086000BF6948006800F403
:10023000003000900198401C0190009818B9019876
:10024000B0F5A06FF1D16248006800F4003010B141
:100250000120009001E0002000900098012843D187
:100260005C48006840F010005A4908600846006881
:1002700020F0030008600846006840F002000860B3
:1002800053484068524948600846406848600846FC
:10029000406840F4806048600846406820F47C1064
:1002A00048600846406840F4E81048600846006826
:1002B00040F08070086000BF4548006800F00070A2
:1002C0000028F9D04248406820F0030040494860C7
:1002D0000846406840F00200486000BF3C48406863
:1002E00000F00C000828F9D10CBD10B5FFF792FF03
:1002F00010BD10B53648006840F001003449086070
:10030000084640683449084031494860084600685A
:10031000324908402E4908600846006820F48020D1
:1003200008600846406820F4FE0048604FF41F0053
:100330008860FFF7DAFF4FF000602949086010BDC0
:1003400010B5002100200022214B5B6803F00C0156
:1003500021B1042906D0082928D107E0214B224CDD
:10036000236027E01F4B204C236023E0184B5B6881
:1003700003F47010164B5B6803F48032022303EB26
:10038000904022B9194B4343174C23600DE0104BAA
:100390005B6803F4003323B1144B4343124C2360D6
:1003A00003E0104B4343104C236003E00D4B0E4C15
:1003B000236000BF00BF064B5B68C3F303130C4C04
:1003C000E15C094B1B68CB40074C236010BD00006B
:1003D00000100240002002400000FFF8FFFFF6FE80
:1003E00008ED00E000127A000000002000093D0046
:1003F0000400002008B50121202001F045FB042065
:10040000ADF8000010208DF8030003208DF80200E5
:100410006946FE4801F07CF80421FC4801F025F90A
:1004200008BD0020FA49886148618862C862F949BC
:10043000886148618862C862F7498861486188625A
:10044000C8627047F0B587B00546012D03D101267B
:10045000EF48C76A0AE0022D03D10226ED48C76AB9
:1004600004E0032D02D10326EB48C76A0020029066
:10047000102040EA0620039000208DF8110004208F
:100480008DF8100006208DF8120002208DF8130060
:1004900002218DF814100197002406E001A8025DE6
:1004A0000F30A11C4254601CC4B2042CF6DB02A91C
:1004B000DA4801F0DFFC07B0F0BD10B588B00020CD
:1004C00003904FF48870049000208DF815000420EC
:1004D0008DF8140008208DF8160002208DF8170002
:1004E00002218DF81810CA48C06A0090C948C06A35
:1004F0000190C948C06A0290002407E01DF804205A
:100500000DF11700A11C4254601CC4B2062CF5DB8F
:1005100003A9C24801F0AEFC4FF4967000F0ACFCA9
:10052000002003904FF40470049000208DF8150013
:1005300004208DF8140008208DF8160002208DF894
:10054000170002218DF81810002408E0A01D1DF8E6
:1005500000200DF11700A11C4254601CC4B2062CEF
:10056000F4DB03A9AD4801F085FC08B010BDAC4A2E
:100570001188AC4A1288881AB0F5C87F02DBA0F552
:100580007A7004E010F5C87F01DA00F57A70A54AA8
:1005900011807047A44A1188A44A1288881AB0F5BD
:1005A000C87F02DBA0F57A7004E010F5C87F01DA9D
:1005B00000F57A709D4A118070479D4A11889D4AC6
:1005C0001288881AB0F5C87F02DBA0F57A7004E0C3
:1005D00010F5C87F01DA00F57A70964A11807047ED
:1005E00000B5FFF7C4FF8A49086008460068B0F507
:1005F000FA4F05DD0020086008464068401C48604E
:100600008348006810F5FA4F06DA00208049086038
:1006100008464068401E4860FFF7BCFF7D490860FF
:1006200008460068B0F5FA4F05DD0020086008466E
:100630004068401C48607748006810F5FA4F06DAB9
:1006400000207449086008464068401E4860FFF773
:10065000B4FF7149086008460068B0F5FA4F05DD3F
:100660000020086008464068401C48606A480068EE
:1006700010F5FA4F06DA002067490860084640681E
:10068000401E486000BD10B5FFF7AAFF6048016832
:10069000406800EB4002C2EBC01001EB00205C4957
:1006A000C86000204860C86803F0DCF90446584878
:1006B000816A204603F08AF855498862886A5E4953
:1006C00003F0F2F804465D4903F02CFA5049C86281
:1006D0000846C068C82148434FF4B47148434FF4FA
:1006E000FA4190FBF1F4204603F0BCF94849486216
:1006F000C86803F0B7F9044645488169204603F00D
:1007000065F8434988610A469169506903F0D6FA51
:100710003F49C86108468068C968401A3C49086179
:100720003C480168406800EB4002C2EBC01001EB9E
:1007300000203849C86000204860C86803F092F97A
:1007400004463448816A204603F040F83149886203
:10075000886A394903F0A8F80446384903F0E2F9F9
:100760002C49C8620846C068C82148434FF4B47198
:1007700048434FF4FA4190FBF1F4204603F072F93C
:1007800024494862C86803F06DF90446214881692C
:10079000204603F01BF81F4988610A469169506999
:1007A00003F08CFA1B49C86108468068C968401A82
:1007B00018490861184800681749496801EB410267
:1007C000C2EBC11100EB01201349C8600020486052
:1007D000C86803F047F904460F48816A204602F0D2
:1007E000F5FF0D498862886A134903F05DF80446F5
:1007F000124903F097F90849C8620846C068C82141
:1008000048434FF4B47148431AE00000001401401B
:100810005400002084000020B40000200064004048
:10082000240400401400002024080040160000208A
:10083000240C0040180000200000FA460000B443D9
:100840004FF4FA4190FBF1F4204603F00BF93849DC
:100850004862C86803F006F90446354881692046B5
:1008600002F0B4FF324988610A469169506903F089
:1008700025FA2F49C86108468068C968401A2C4982
:10088000086110BD10B520212A4800F0F0FE0121BA
:10089000880702F052FF012844D12748C078012878
:1008A00040D12548408A401C00B22349488208466E
:1008B000808A401C00B288820846C08A401C00B270
:1008C000C8821E48B0F9000000EB80004FF47A7136
:1008D00091FBF0F000B21849B1F9121088420ADC1D
:1008E0000020154948821648006808B9012000E038
:1008F0000020134908601048B0F91600B0F5FA6FEF
:100900000EDB00200C49C8820E4948618861C8612D
:100910000D4948618861C861054948618861C861BD
:10092000FFF7B1FE0121880702F018FF10BD00009B
:10093000B4000020000C01403C0000201A00002000
:100940008881224254000020840000202DE9F041DB
:100950008AB004460D4616461F46DDF84080012148
:10096000042001F091F80121480601F09AF84FF4B3
:100970008050ADF8240003208DF8260018208DF853
:10098000270009A9784800F0C3FD4FF40060ADF8D6
:10099000240048208DF8270009A9734800F0B8FD0D
:1009A00000208DF81E008DF81F008DF8200001201A
:1009B0008DF8210000208DF822008DF823008DF89D
:1009C0001A808DF81B408DF81C608DF81D50ADF815
:1009D000187006A9654801F0D4F800208DF81200BF
:1009E0008DF8130001208DF814000020ADF80800E8
:1009F000ADF80A00ADF80C00ADF80E00ADF810002F
:100A000001208DF8150002A801F045F9012202210C
:100A1000564801F03FFC14208DF8040001208DF8A9
:100A2000050000208DF8060001208DF8070001A8C0
:100A300000F0A5FC00200AB0BDE8F08100B585B04B
:100A400002214A4801F08EFC002835D00020009099
:100A500001908DF808008DF80A008DF813006A46A1
:100A60000021424801F0FBFA9DF80B00032808D151
:100A70009DF80C00012804D19DF80D0008B9FFF77E
:100A80001CFD9DF80C00012807D09DF80C000228E1
:100A900003D09DF80C00032809D19DF80B00032812
:100AA00005D19DF80D00012801D1FFF7BAFC022104
:100AB0002E4801F0F2FC00BF05B000BDF0B585B0D6
:100AC00007460D46002412200090019000208DF86A
:100AD00008008DF809008DF80A5000BF05E0395D67
:100AE0000DF10B000155601C84B2AC42F7DB694686
:100AF0001E4801F0BFF90646002406E0601C84B2DF
:100B000069461A4801F0B6F906463146174801F021
:100B100049FA18B940F6FF708442EFDB40F6FF70E7
:100B2000844202DB012005B0F0BD0020FBE730B5B8
:100B300085B0054600210D4801F014FB10B90020D6
:100B400005B030BD6A460021084801F088FA00244B
:100B500004E00DF10B00005D2855641C082CF8D34F
:100B60009DF80A00ECE70000000801400064004026
:100B700010B50121084600F087FF0121480400F06C
:100B800090FF0121042000F07FFF0121082000F0E8
:100B90007BFF0121102000F077FF0121084600F0C3
:100BA00080FF0121022000F07CFF0121042000F0E1
:100BB00078FF0121082000F074FF10BD0EB501215F
:100BC000084600F06EFF4FF0804001F0BDFE41F29C
:100BD0008730ADF804004720ADF800000020ADF8E4
:100BE0000600ADF8020069464FF0804001F080FF3A
:100BF0000121880702F09EFD01221146900702F0B4
:100C0000EEFA0121880702F0CFFA0121084600F030
:100C100048FF0EBD00B587B0684600F004FDC02057
:100C2000ADF8000004208DF803006946864800F006
:100C30006FFC864801F088FE01A802F085FA0020CA
:100C4000ADF8040040F2E730ADF808000020ADF840
:100C50000A00ADF8060001A97C4801F049FF002315
:100C60001A460321794802F052FB04A802F07FFAE9
:100C70000120ADF8180004A9744802F0CCF9012154
:100C8000724802F057FD0121704802F08DFA684663
:100C900000F0C9FCC020ADF8000004208DF803006E
:100CA00069466B4800F034FC6A4801F04DFE01A82B
:100CB00002F04AFA0020ADF8040040F2E730ADF847
:100CC00008000020ADF80A00ADF8060001A961484F
:100CD00001F00EFF00231A4603215E4802F017FBC5
:100CE00004A802F044FA0120ADF8180004A95948FC
:100CF00002F091F90121574802F01CFD01215548ED
:100D000002F052FA684600F08EFC0320ADF80000B5
:100D100004208DF8030069464B4800F0F9FB4E486B
:100D200001F012FE01A802F00FFA0020ADF8040055
:100D300040F2E730ADF808000020ADF80A00ADF849
:100D4000060001A9444801F0D3FE00231A460321FE
:100D5000414802F0DCFA04A802F009FA0120ADF8DB
:100D6000180004A93C4802F056F901213A4802F063
:100D7000E1FC0121384802F017FA07B000BD08B5C0
:100D80004FF4A06000F0F6FA26208DF80000002055
:100D90008DF8010001208DF802008DF803006846EF
:100DA00000F0EDFA1D208DF8000001208DF8010003
:100DB0008DF802008DF80300684600F0E0FA1E206E
:100DC0008DF8000001208DF801008DF802008DF8EB
:100DD0000300684600F0D3FA32208DF800000120AD
:100DE0008DF801008DF802008DF80300684600F0D0
:100DF000C6FA0121880702F09DFC1C208DF8000036
:100E000001208DF801008DF802008DF8030068467E
:100E100000F0B5FA08BD08B5FFF7AAFE00F039F8F2
:100E2000FFF7F8FEFFF7CAFE002006230222072183
:100E30000090FFF78BFD4FF4E13000F0B6F84FF46F
:100E4000967000F00BF808BD000801400004004057
:100E5000000C014000080040000C004010B50021CB
:100E600007E042F63C0200BF1300A2F10102FBD1F1
:100E7000491C8142F5D310BD10B5002106E00922BE
:100E800000BF1300A2F10102FBD1491C8142F6D33D
:100E900010BD10B54FF0E020006920F004004FF0C5
:100EA000E02108613348486100208861032008611F
:100EB000001F0F21002807DA0A07140E2E4A00F03F
:100EC0000F031B1FD45403E00A07130E2B4A1354BD
:100ED00000BF10BD2A480088401C00B22849088085
:100EE0000846B0F90000B0F57A7F01DB00200880E9
:100EF000704770B54FF0E02189691E4A511A204AA7
:100F0000B2F900201B4B03FB021002F0C3FD0546A3
:100F10001C4902F0C9FC0446204670BD2DE9F04191
:100F200004464FF0E0218969124A511A144AB2F975
:100F30000020104B03FB021002F0ACFD07461149E4
:100F400002F0B2FC05462846216802F0B7FE0646CC
:100F500025600021304602F0B1FD09D20A4821681F
:100F600002F0ACFE0746294602F030FCBDE8F081F5
:100F70003046FBE740420F0018ED00E000E400E0DF
:100F80001C0000204054094B0000DE42014600BF17
:100F9000704700BFE24A128802F04002002AF9D0EE
:100FA000C2B2DF4B1B1D1A80704710B586B00446D5
:100FB000012144F2040000F067FDD94801F0C0FAB5
:100FC0004FF40070ADF8140003208DF816001820BF
:100FD0008DF8170005A9D34800F09AFA4FF4806005
:100FE000ADF8140004208DF8170005A9CD4800F0D5
:100FF0008FFA25208DF8000003208DF801008DF870
:10100000020001208DF80300684600F0B8F9019451
:101010000020ADF80800ADF80A00ADF80C00ADF8FE
:1010200010000C20ADF80E0001A9BD4801F0CBFA6C
:10103000012240F22551BA4801F05DFB0121B84878
:1010400001F04DFB06B010BD10B540F22551B4487B
:1010500001F036FC10B3B24801F0B2FBC4B2B248A2
:10106000008800F40040C8B9AF48008800F4804010
:1010700060B10A2C03D00020AB49088020E0AA48C8
:10108000008840F40040A849088019E00D2C06D1E2
:10109000A548008840F48040A349088010E0A24899
:1010A0000088C0F30D00A1490C549F480088401CE3
:1010B0009D49088008460088C72801DD0020088077
:1010C00010BD10B5044600BF4021954801F0E2FB79
:1010D0000028F9D02146924801F06EFB10BDF0B512
:1010E0008DB006460F4615462D2D01DD0DB0F0BD25
:1010F0000021281D0DF80010AA208DF800008DF8A1
:1011000001008DF802608DF80350002405E0395D80
:10111000201D0DF80010601CC4B2AC42F7DB0024A7
:101120000BE0281D1DF800001DF804100844C1B292
:10113000281D0DF80010601CC4B2281D8442F0DB8D
:10114000002405E01DF80400FFF7BBFF601CC4B2DB
:10115000681D8442F6DB00BFC8E72DE9F0418EB080
:1011600007460D46164600247149384602F0DAFC5F
:10117000804602F05BFC00B20D909DF835202146C0
:10118000641C0DF801209DF834202146641C0DF8E4
:1011900001206749284602F0C5FC804602F046FC63
:1011A00000B20D909DF835202146641C0DF80120F9
:1011B0009DF834202146641C0DF801205C4930461E
:1011C00002F0B0FC804602F031FC00B20D909DF8B8
:1011D00035202146641C0DF801209DF8342021465D
:1011E000641C0DF8012022466946F120FFF777FFC5
:1011F0000EB0BDE8F081F0B58FB007460D4616463B
:101200000024384602F012FC00B20E909DF83920FE
:101210002146641C01A842549DF838202146641CD4
:101220004254284602F002FC00B20E909DF839208C
:101230002146641C01A842549DF838202146641CB4
:101240004254304602F0F2FB00B20E909DF8392075
:101250002146641C01A842549DF838202146641C94
:101260004254224601A9F220FFF739FF0FB0F0BD2A
:1012700017B58DB000249DF837202146641C0DF869
:1012800001209DF836202146641C0DF801209DF8B0
:1012900035202146641C0DF801209DF8342021469C
:1012A000641C0DF801209DF83B202146641C0DF8BC
:1012B00001209DF83A202146641C0DF801209DF87C
:1012C00039202146641C0DF801209DF83820204665
:1012D000611CCCB20DF800209DF83F202046611C17
:1012E000CCB20DF800209DF83E202046611CCCB207
:1012F0000DF800209DF83D202046611CCCB20DF871
:1013000000209DF83C202046611CCCB20DF8002046
:1013100022466946F320FFF7E2FE10B010BD000040
:10132000003801400008014024000020E4000020B3
:101330000000C8420948804709480047FEE7FEE729
:10134000FEE7FEE7FEE7FEE7FEE7FEE7FEE7FEE775
:1013500004480549054A064B70470000F30200089F
:1013600031010008100200201008002010040020A5
:101370001004002031490143314A1160704770B5B3
:10138000002100230F22C47804B32D4C246804F4F8
:10139000E064C4F5E064210AC1F10403CA40447862
:1013A00004FA03F18478144021430901254C06789E
:1013B000A155047804F01F050124AC4005786D1197
:1013C000AD0005F1E025C5F8004109E0047804F01E
:1013D0001F050124AC401C4D0678761145F82640C7
:1013E00070BD1A4A0A400243154B1B1F1A60704712
:1013F00039B1134A121D12680243114B1B1D1A60AA
:1014000006E00F4A121D126882430D4B1B1D1A6025
:101410007047042808D14FF0E021096941F0040128
:101420004FF0E022116107E04FF0E021096921F05F
:1014300004014FF0E0221161704700000000FA053E
:101440000CED00E000E400E080E100E080FFFF1F21
:1014500010B50446CC48844208D10121042000F094
:101460002DFB0021042000F029FB46E0C748844200
:1014700008D10121082000F021FB0021082000F004
:101480001DFB3AE0C248844208D10121102000F03F
:1014900015FB0021102000F011FB2EE0BD48844216
:1014A00008D10121202000F009FB0021202000F0BC
:1014B00005FB22E0B848844208D10121402000F019
:1014C000FDFA0021402000F0F9FA16E0B34884420A
:1014D00008D10121802000F0F1FA0021802000F0E5
:1014E000EDFA0AE0AE48844207D10121801500F0F0
:1014F000E5FA0021A01500F0E1FA10BD10B50121B8
:10150000084600F0DBFA0021012000F0D7FA10BDF8
:101510002DE9F0410246002500260020002300248A
:10152000002791F803C00CF00F0591F803C00CF0F0
:10153000100CBCF1000F03D091F802C04CEA050575
:1015400091F800C0BCF1000F31D0146800202BE0EE
:101550004FF0010C0CFA00F3B1F800C00CEA0306DE
:101560009E4220D183004FF00F0C0CFA03F7BC43CE
:1015700005FA03FC4CEA040491F803C0BCF1280FFF
:1015800006D14FF0010C0CFA00FCC2F814C00AE0BE
:1015900091F803C0BCF1480F05D14FF0010C0CFAD3
:1015A00000FCC2F810C0401C0828D1D31460B1F868
:1015B00000C0BCF1FF0F34DD546800202EE000F1C4
:1015C000080C4FF0010808FA0CF3B1F800C00CEA5F
:1015D00003069E4221D183004FF00F0C0CFA03F753
:1015E000BC4305FA03FC4CEA040491F803C0BCF1C7
:1015F000280F05D100F1080C08FA0CF8C2F8148085
:1016000091F803C0BCF1480F07D100F1080C4FF06E
:10161000010808FA0CF8C2F81080401C0828CED344
:101620005460BDE8F0814FF6FF71018002218170A6
:101630000421C17070470246002093680B400BB133
:10164000012000E0002070470146886880B27047A2
:1016500002460020D3680B400BB1012000E00020BF
:1016600070470146C86880B27047016170474161A8
:1016700070470AB1016100E041617047C160704785
:101680004FF480320A43826181618261826982699A
:10169000704702460020434B18684FF6807318408D
:1016A00040EA021008433F4B186070473E49C8614A
:1016B0007047F0B50A46002300240021002500F001
:1016C0000046B6F1004F02D1364EF16901E0354EC9
:1016D0007168C0F3034583B200F44016B6F5401FAD
:1016E00008D121F070612F4E766826F070662D4F7C
:1016F0007E6012E000F48016B6F5801F06D1032646
:1017000006FA05F4A14341F0706106E0460D36018A
:1017100003FA06F6B14341F0706122B1460D36017D
:1017200003FA06F6314300F00046B6F1004F02D14D
:101730001C4EF16101E01B4E7160F0BD30B500221E
:101740008B071C0F0F2303FA04F2164B08338C107F
:1017500053F824309343134C08348D1044F825304B
:1017600023468C1053F824308C07240F00FA04F41D
:1017700023430C4C08348D1044F8253030BD0A4901
:10178000DC3108607047000000080140000C014097
:10179000001001400014014000180140001C0140ED
:1017A000002001400000014000002042DF480068A6
:1017B00040F00100DD49086008464068DC49084007
:1017C000DA49486008460068DA490840D7490860A5
:1017D0000846006820F4802008600846406820F42D
:1017E000FE0048604FF41F0088607047CF490968C9
:1017F00021F48031CD4A11601146096821F480211D
:101800001160B0F5803F03D0B0F5802F0ED106E017
:10181000C649096841F48031C44A116007E0C349F0
:10182000096841F4A021C14A116000E000BF00BF77
:10183000704710B501460022002300204A11012AFA
:1018400002D1BA4C236806E0022A02D1B74C236ABF
:1018500001E0B64C636A01F01F02012494401C4071
:101860000CB1012000E0002010BD38B50020009030
:101870000024002500BF3120FFF7DBFF054600985C
:10188000401C00900098B0F5A06F01D0002DF2D060
:101890003120FFF7CEFF08B1012400E000242046EC
:1018A00038BD01460020A14A106820F0F80040EA47
:1018B000C10010607047A0490860704702460020D0
:1018C0009A4B586820F47C1042EA01031843974B66
:1018D0005860704798490866704701460020934A4F
:1018E000506820F003000843506070478F484068FC
:1018F00000F00C007047014600208C4A506820F030
:10190000F00008435060704701460020874A506845
:1019100020F4E06008435060704701460020834A8D
:10192000506820F4605040EAC1005060704729B10F
:101930007E4A527A02437D4B5A7204E07B4A527AC5
:1019400082437A4B5A7270477B49D831086070479E
:1019500001460020754A506820F44040084350601A
:1019600070470021714A20321170704A82F82010AD
:10197000012802D004280AD104E001216B4A203258
:10198000117005E00521694A2032117000E000BFA6
:1019900000BF70476949086070476449096A01439C
:1019A000624A11627047654944390860704730B532
:1019B00000210022002400235C4D6D6805F00C011D
:1019C00021B1042905D0082923D105E05C4D05602B
:1019D00022E05B4D05601FE0544D6D6805F4701208
:1019E000524D6D6805F48034022505EB92421CB916
:1019F000544D554305600BE04C4D6D6805F40035C2
:101A00001DB1504D5543056002E04D4D55430560F5
:101A100002E04B4D056000BF00BF444D6D6805F00E
:101A2000F0010909484D6B5C0568DD4045603F4D9C
:101A30006D6805F4E061090A434D6B5C4568DD4063
:101A400085603A4D6D6805F46051C90A3E4D6B5C86
:101A50004568DD40C560354D6D6805F44041890B32
:101A60003A4D6B5CC568B5FBF3F5056130BD29B136
:101A70002E4A526902432D4B5A6104E02B4A5269A7
:101A800082432A4B5A61704729B1284A926902431E
:101A9000264B9A6104E0254A92698243234B9A615E
:101AA000704729B1214AD2690243204BDA6104E030
:101AB0001E4AD26982431D4BDA61704729B11B4A25
:101AC000D2680243194BDA6004E0184AD2688243B4
:101AD000164BDA60704729B1144A12690243134B5E
:101AE0001A6104E0114A12698243104B1A6170476F
:101AF00012494039086070470F49C86470470B4964
:101B0000C87170470948406A40F0807007494862D0
:101B1000704701460020054A92680A400AB1012038
:101B200000E00020704701498872704700100240B1
:101B30000000FFF8FFFFF6FE000042428004424230
:101B400000127A0000093D00260000203600002027
:101B500010B50446FE48844209D101214806FFF72A
:101B6000BAFF00214FF00070FFF7B5FF08E0012138
:101B70008806FFF7B0FF00214FF08060FFF7ABFF52
:101B800010BD30B5024600200023146824F0020482
:101B90001460146844F00104146000E05B1C546895
:101BA00004F001041CB94FF6FF74A342F6D1546847
:101BB00004F001040CB900206CE08C79012C04D1F4
:101BC000146844F08004146003E0146824F0800476
:101BD0001460CC79012C04D1146844F040041460E2
:101BE00003E0146824F0400414600C7A012C04D142
:101BF000146844F02004146003E0146824F0200406
:101C000014604C7A012C04D1146844F01004146060
:101C100003E0146824F0100414608C7A012C04D1C1
:101C2000146844F00804146003E0146824F0080405
:101C30001460CC7A012C04D1146844F004041460BC
:101C400003E0146824F0040414608C78A407CD78B1
:101C500044EA05640D7944EA05444D7944EA0554A3
:101C60000D886D1E2C43D461146824F001041460A7
:101C7000002300E05B1C546804F001041CB14FF623
:101C8000FF74A342F6D1546804F001040CB10020A3
:101C900000E0012030BD10B50021837A012202FA54
:101CA00003F1AC4A126842F00102AA4B1A60A94A39
:101CB0001C3212688A43A74B1C331A60027BCAB9D4
:101CC000A44A0C3212688A43A24B0C331A60428831
:101CD000C38842EA03439F4A4032847A42F8343050
:101CE0000288838842EA03439A4A4032847A02EBAC
:101CF000C4025360027B012A19D1964A0C32126841
:101D00000A43944B0C331A604288038842EA034327
:101D1000904A4032847A42F83430C288838842EA5A
:101D200003438C4A4032847A02EBC4025360C27A85
:101D30003AB9884A121D12688A43864B1B1D1A60E5
:101D400006E0844A121D12680A43824B1B1D1A606A
:101D5000028932B97F4A143212688A437D4B1433A8
:101D60001A600289012A06D17A4A143212680A439B
:101D7000784B14331A60427B012A06D1754A1C3213
:101D800012680A43734B1C331A60724A126822F0BD
:101D90000102704B1A6010BD00218171C171017286
:101DA00041728172C1728170C1700321017102217F
:101DB00041710121018070476649096841F00101C4
:101DC000644A11601146096843F60E729143614AF4
:101DD00011601146096841EA002111601146096845
:101DE00021F001011160704721B1026842F4803294
:101DF000026003E0026822F4803202607047E1B1C1
:101E0000026842F0800202604FF4C272125842F43B
:101E100080734FF4C27213504FF4CA72125842F4D6
:101E200080734FF4CA7213504FF4D272125842F4B6
:101E300080734FF4D27213501BE0026822F08002CC
:101E400002604FF4C272125822F480734FF4C272CF
:101E500013504FF4CA72125822F480734FF4CA72AE
:101E600013504FF4D272125822F480734FF4D2728E
:101E70001350704710B502460020936803F080634A
:101E8000B3F1806F00D110E0936803F00063B3F109
:101E9000006F01D1012008E0936803F08053B3F193
:101EA000805F01D1022000E00420042879D002F5EF
:101EB000C07303EB00131B6803F0010402F5C07349
:101EC00003EB00131C600B7A7BB94B7A0C8843EA56
:101ED000445302F5C07404EB00142468234302F554
:101EE000C07404EB0014236010E00B7A4C6843EAE2
:101EF000C4034C7A234302F5C07404EB0014246835
:101F0000234302F5C07404EB001423608B7A03F0C2
:101F10000F038B7202F5C07303EB00135B6823F0B1
:101F20000F0402F5C07303EB00135C6002F5C0738D
:101F300003EB00135B688C7A234302F5C07404EB57
:101F4000001463608B7B1C064B7B44EA034403E074
:101F500000640040006600400B7B44EA0323CC7A17
:101F6000234302F5C07404EB0014A3608B7C1C06B1
:101F70004B7C44EA03440B7C44EA0323CC7B23439D
:101F800002F5C07404EB0014E36002F5C07303EBC8
:101F900000131B6843F0010402F5C07303EB001348
:101FA0001C6010BD10B50246002321B1012907D0E5
:101FB00002290FD109E09068F94C00EA04030BE014
:101FC0009068F84C00EA040306E09068F64C00EADA
:101FD000040301E0002300BF00BFF44C181BA34220
:101FE00016D007DC83B16FF08060184470B102280E
:101FF00018D111E0B0F5007F10D0ED4C204448B16D
:10200000B0F5003F0ED10BE002230DE000230BE002
:10201000002309E0002307E0012305E0012303E09A
:10202000012301E0002300BF00BFD8B210BD21B1E1
:10203000012907D002290FD109E0826842F080020D
:1020400082600AE0826842F40042826005E08268B1
:1020500042F40002826000E000BF00BF704710B58C
:1020600000F5D87303EB01131B6803F0040313722C
:10207000137A53B900F5D87303EB01131B6840F2D0
:10208000FF7404EA5353136009E000F5D87303EBBF
:1020900001131B686FF0604404EAD303536000F53A
:1020A000D87303EB01131B6803F00203537200F5AE
:1020B000D87303EB01135B6803F00F03937200F511
:1020C000D87303EB01135B681B0AD37400F5D87354
:1020D00003EB01139B68D37200F5D87303EB011374
:1020E0009B681C0A147300F5D87303EB01139B68FB
:1020F0001C0C547300F5D87303EB01139B681B0E83
:10210000937300F5D87303EB0113DB68D37300F509
:10211000D87303EB0113DB681C0A147400F5D87341
:1021200003EB0113DB681C0C547400F5D87303EB4C
:102130000113DB681B0E937421B9C36843F02003BD
:10214000C36003E0036943F02003036110BD21B9BC
:10215000C26842F02002C26003E0026942F020023D
:10216000026170470246002019B9D36803F00300EA
:1021700006E0012903D1136903F0030000E0002009
:10218000704710B502460B4600204FF6FF71BBB9F1
:10219000146824F0020444F00104146000E0491EB5
:1021A000546804F00304012C01D00029F7D15468CD
:1021B00004F00304012C01D0002032E0012030E0C3
:1021C000012B13D1146824F00304146000E0491EAD
:1021D000546804F003040CB10029F8D1546804F0E9
:1021E00003040CB100201CE001201AE0022B17D1DF
:1021F000146824F0010444F00204146000E0491E55
:10220000546804F00304022C01D00029F7D154686B
:1022100004F00304022C01D0002002E0012000E0C1
:10222000002010BD014600200A6822F0010242F0A1
:1022300002020A604A6802F00302022A00D1012069
:10224000704701464FF6FF7200200B6823F002032F
:102250000B6000E0521E4B6803F00203022B01D119
:10226000002AF7D14B6803F00203022B00D00120B3
:102270007047014600208A6902F0700070470146ED
:1022800000208A69100E7047014600208A69C2F357
:10229000074070471AB143690B43436102E0436949
:1022A0008B434361704710B50246002001F4700370
:1022B00043B19369C1F3130423400BB101202DE016
:1022C00000202BE001F0807343B15368C1F3130485
:1022D00023400BB1012021E000201FE001F000634A
:1022E00043B19368C1F3130423400BB1012015E0FF
:1022F000002013E001F0007343B1D368C1F313046D
:1023000023400BB1012009E0002007E01369C1F36D
:10231000130423400BB1012000E0002010BD002277
:10232000244B994202D10023836111E0C1F31302CF
:1023300001F000730BB1C2600AE001F080630BB1E1
:10234000026105E001F000630BB1826000E04260D1
:1023500070470246002002EA01030BB1012000E0B1
:102360000020704770B504460D460026606928407D
:10237000002872D0B5F5807F69D01DDC082D42D0D1
:1023800006DC012D2DD0022D31D0042D7FD134E07B
:10239000102D3ED0202D42D0402D78D145E00000B8
:1023A00003000004000300080000031000010008FF
:1023B0000001FFF77000F030B5F5004F61D009DC87
:1023C000B5F5007F4AD0B5F5806F4DD0B5F5006FFB
:1023D0005DD150E0B5F5803F2DD0B5F5003F56D129
:1023E0002FE0A0685549FFF7B4FF064651E0E068CA
:1023F0000321FFF7AEFF06464BE0E0680821FFF738
:10240000A8FF064645E0E0681021FFF7A2FF064658
:102410003FE020690321FFF79CFF064639E0206971
:102420000821FFF796FF064633E020691021FFF7E9
:1024300090FF06462DE060680821FFF78AFF0646F8
:1024400027E060681021FFF784FF064621E0A069BD
:102450000121FFF77EFF06461BE01BE0A069022179
:10246000FFF777FF064614E0A0690421FFF771FF2C
:1024700006460EE00BE0A0697021FFF76AFF0646F2
:1024800007E060680421FFF764FF064601E00026CC
:1024900000BF00E00026304670BDB1F5007F3AD0A5
:1024A0000FDC202928D006DC01291CD004291DD0EE
:1024B000082940D11DE0402921D0B1F5807F3AD1D3
:1024C00026E0B1F5004F31D006DCB1F5806F25D0A4
:1024D000B1F5006F2FD124E0B1F5803F12D0B1F5F6
:1024E000003F28D111E0154A826025E00822C26031
:1024F00022E01022C2601FE0082202611CE01022CC
:10250000026119E00822426016E01022426013E0E6
:102510000422426010E0042242600DE00422426086
:102520000AE0002282610422426005E0002282610A
:102530000422426000E000BF00BF704701010100BB
:1025400010B50446FB48844209D101218803FFF7F6
:10255000B5FA00214FF48040FFF7B0FA32E0F648B8
:10256000844209D101214804FFF7B5FA00214FF454
:102570000030FFF7B0FA25E0F048844209D101218C
:102580008804FFF7A8FA00214FF48020FFF7A3FA90
:1025900018E0EB48844209D10121C804FFF79BFAF7
:1025A00000214FF40020FFF796FA0BE0E548844243
:1025B00008D101210805FFF78EFA00214FF48010A1
:1025C000FFF789FA10BD2DE9F04786B005460E46A3
:1025D0000024A24600BFA1460027B08900B100BF79
:1025E0002F462C8A4CF6FF700440F08804432C825E
:1025F000AC894EF6F3100440B088318908437189E4
:1026000008430443AC81AC8A4FF6FF400440B089D4
:102610000443AC8201A8FFF7CAF9C648874202D139
:10262000DDF810A001E0DDF80CA0A88900F400405E
:1026300040B10AEBCA0000EB0A1031684900B0FB58
:10264000F1F807E00AEBCA0000EB0A1031688900D4
:10265000B0FBF1F86420B8FBF0F00401200964211C
:1026600001FB1089A88900F4004040B1322000EB42
:10267000C900B0FBF1F000F00700044308E032208D
:1026800000EB09106421B0FBF1F000F00F000443EF
:102690002C8106B0BDE8F0874FF41651016000218F
:1026A0008180C18001810C2141810021818170479D
:1026B00010B502460020108A4FF2FF0318400B8825
:1026C0004C8823438C882343CC88234318431082AF
:1026D00010BD0021018041808180C180704721B1FF
:1026E000828942F40052828104E082894DF6FF73B0
:1026F0001A4082817047F0B5034600240026002569
:10270000002040F66A17B94200D100BF1846C1F355
:10271000421401F01F06012707FA06F5012C01D12A
:102720000C3004E0022C01D1103000E014301AB15A
:1027300007682F43076002E00768AF430760F0BDFA
:102740001AB1838A0B43838202E0838A8B4383829C
:102750007047028A4FF6F0731A400282028A0A43D7
:102760000282704782894FF2FF731A408281828908
:102770000A438281704721B1828942F0020282813C
:1027800004E082894FF6FD731A4082817047028A05
:102790004FF6DF731A400282028A0A4302827047B0
:1027A00021B1028A42F48042028204E0028A4BF69E
:1027B000FF731A4002827047C1F30802828070479B
:1027C00001468888C0F308007047818941F0010103
:1027D00081817047028BD2B20283028B42EA0122CE
:1027E00002837047028B02F47F420283028B0A430A
:1027F0000283704721B1828A42F02002828204E083
:10280000828A4FF6DF731A408282704721B1828A32
:1028100042F01002828204E0828A4FF6EF731A407F
:102820008282704721B1828A42F00802828204E0EB
:10283000828A4FF6F7731A408282704721B18289EB
:1028400042F40042828103E08289C2F30E02828157
:10285000704721B1828A42F40062828204E0828A57
:102860004FF2FF731A4082827047828A4FF6FB73E1
:102870001A408282828A0A438282704721B1828A08
:1028800042F00202828204E0828A4FF6FD731A400F
:102890008282704702460020B1F5007F00D100BF60
:1028A00013880B400BB1012000E00020704701F4B9
:1028B0000072B2F5007F00D100BFCA4302807047AA
:1028C00070B50246002400230025002040F66A1659
:1028D000B14200D100BFC1F3421501F01F03012630
:1028E00006FA03F3012D02D19689334006E0022D4A
:1028F00002D1168A334001E0968A33400C12012639
:1029000006FA04F41688344013B10CB1012000E03B
:10291000002070BD10B50022002340F66A14A142C9
:1029200000D100BF0A1201249440A3B2DC4304800A
:1029300010BD000000380140004400400048004045
:10294000004C00400050004010B50446FE48844250
:1029500008D10121C014FFF7B1F80021E014FFF7FE
:10296000ADF8C4E0B4F1804F08D101210846FFF76B
:10297000B2F800210120FFF7AEF8B8E0F348844236
:1029800008D101210220FFF7A6F800210220FFF75D
:10299000A2F8ACE0EE48844208D101210420FFF700
:1029A0009AF800210420FFF796F8A0E0E948844255
:1029B00008D101210820FFF78EF800210820FFF739
:1029C0008AF894E0E448844208D101211020FFF7FE
:1029D00082F800211020FFF77EF888E0DF4884426B
:1029E00008D101212020FFF776F800212020FFF7F1
:1029F00072F87CE0DA48844208D101214014FFF7E4
:102A00005DF800216014FFF759F870E0D548844262
:102A100009D10121C804FFF751F800214FF400202B
:102A2000FFF74CF863E0D048844209D10121080542
:102A3000FFF744F800214FF48010FFF73FF856E00D
:102A4000CA48844209D101214805FFF737F800211F
:102A50004FF40010FFF732F849E0C548844208D12E
:102A600001214020FFF737F800214020FFF733F81D
:102A70003DE0C048844208D101218020FFF72BF8B7
:102A800000218020FFF727F831E0BB48844208D1BD
:102A900001218015FFF71FF80021A015FFF71BF893
:102AA00025E0B648844209D101210804FFF706F861
:102AB00000214FF48030FFF701F818E0B04884425D
:102AC00009D101214804FEF7F9FF00214FF400303D
:102AD000FEF7F4FF0BE0AB48844208D101218804E3
:102AE000FEF7ECFF00214FF48020FEF7E7FF10BD5A
:102AF00000220288944B98420ED0994B98420BD0FA
:102B0000B0F1804F08D0914B984205D0904B98423D
:102B100002D0904B984204D14FF68F731A404B88E5
:102B20001A438D4B984207D08C4B984204D04FF6F5
:102B3000FF431A40CB881A4302808B8883850B8819
:102B40000385814B98420BD0854B984208D08B4B24
:102B5000984205D08A4B984202D08A4B984201D1C4
:102B60000B7A038601238382704770B5002400220C
:102B70000023058C4FF6FE7635400584028C838851
:102B8000048B4FF68F752C40B51E2C400D882C43BE
:102B9000751E2A400D892A434D882A436A4DA84252
:102BA0000BD06F4DA84208D0744DA84205D0744D8B
:102BB000A84202D0734DA84213D14FF6F7752A40B0
:102BC0004D892A434FF6FB752A408D882A434FF6DC
:102BD000FF652B404FF6FF552B408D892B43CD8948
:102BE0002B4383800483CD888586028470BD70B5B5
:102BF000002400220023058C4FF6EF763540058433
:102C0000028C8388048B48F6FF752C404FF6FF45F5
:102C10002C400D884FF6FF7606EA05252C434FF62B
:102C2000DF752A400D8906EA05152A434D8806EA14
:102C300005152A43444DA84202D0494DA8421DD152
:102C40004FF67F752A404D894FF6FF7606EA051547
:102C50002A434FF6BF752A408D8806EA05152A4398
:102C60004FF6FF352B404FF2FF752B408D8906EA5A
:102C700085052B43CD8906EA85052B438380048394
:102C8000CD880587028470BD70B500240022002322
:102C9000058C4FF6FF6635400584028C8388848B53
:102CA0004FF68F752C404FF6FC752C400D882C4349
:102CB0004FF6FF552A400D894FF6FF7606EA0525A7
:102CC0002A434D8806EA05252A431F4DA84202D013
:102CD000234DA8421DD14FF2FF752A404D894FF672
:102CE000FF7606EA05252A434FF6FF352A408D88F0
:102CF00006EA05252A434EF6FF752B404DF6FF7573
:102D00002B408D8906EA05152B43CD8906EA05156A
:102D10002B4383808483CD888587028470BD70B502
:102D2000002200230024058C4EF6FF7635400584F2
:102D3000038C8488828B48F6FF752A404FF6FF4546
:102D40002A400D8820E00000002C014000040040D3
:102D500000080040000C004000100040001400403B
:102D600000340140004C014000500140005401403B
:102D700000180040001C00400020004000400140BE
:102D800000440140004801404FF6FF7606EA052561
:102D90002A434DF6FF752B400D8906EA05352B4376
:102DA0004D8806EA05352B43FA4DA84202D0FA4D6C
:102DB000A84208D14BF6FF752C408D894FF6FF765F
:102DC00006EA85152C4384808283CD88A0F8405084
:102DD000038470BD828B4FF2FF331A408283828B53
:102DE0004FF6FF7303EA01231A4382837047F0B55D
:102DF0000C461546002200210026078C4EF6FF7C6B
:102E000007EA0C070784828B018C4FF6FF7707EAED
:102E1000043640F6FF473A404FF6FF7707EA0527AA
:102E20003A434FF6FF7707EA03373A43D94FB842A0
:102E30000ED0D94FB8420BD0B0F1804F08D0D74F49
:102E4000B84205D0D64FB84202D0D64FB84206D1CC
:102E50004DF6FF77394046F48057394305E047F691
:102E6000FF57394044F48057394382830184F0BDD1
:102E7000828B4FF6F3731A408283828B0A438283DC
:102E80007047F0B50C461546002200210026078C3D
:102E90004FF6FF6C07EA0C070784828B018C4FF614
:102EA000FF7707EA04264FF60C773A404FF6FF7794
:102EB00007EA03172F433A43B64FB8420ED0B64F36
:102EC000B8420BD0B0F1804F08D0B44FB84205D013
:102ED000B34FB84202D0B34FB84206D14FF6FF57B6
:102EE000394046F48077394305E04FF2FF573940C7
:102EF00044F48077394382830184F0BD028B4FF222
:102F0000FF331A400283028B4FF6FF7303EA01235B
:102F10001A4302837047F0B50C4615460022002183
:102F20000026078C4FF6EF7C07EA0C070784028B1C
:102F3000018C4FF6FF7707EA041640F6FF473A4048
:102F40004FF6FF7707EA03373A434FF6FF7707EA72
:102F500005273A438F4FB8420ED08F4FB8420BD05F
:102F6000B0F1804F08D08D4FB84205D08C4FB84299
:102F700002D08C4FB84206D14FF6DF77394046F089
:102F80001007394305E04FF65F77394044F01007EA
:102F9000394302830184F0BD028B4FF6F3731A406C
:102FA0000283028B0A4302837047F0B50C46154634
:102FB00000220021068C4FF6FE773E400684028BED
:102FC000018C4FF60C7632407E1C06EA03162E4327
:102FD0003243704EB0420ED06F4EB0420BD0B0F1C3
:102FE000804F08D06D4EB04205D06D4EB04202D039
:102FF0006C4EB04206D14FF6FD76314044F00106EA
:10300000314305E04FF6F576314044F00106314397
:1030100002830184F0BD70B505460C465D488542CB
:103020000ED05D4885420BD0B5F1804F08D05B488B
:10303000854205D05A48854202D05A48854200D17F
:1030400000E000BF208850B92389A2886188284603
:10305000FFF7ABFFE1882846FFF79EFF25E02088B9
:1030600004280AD12389A28861882846FFF753FFE4
:10307000E1882846FFF742FF17E0208808280AD198
:103080002389A28861882846FFF7FBFEE18828464D
:10309000FFF7EEFE09E02389A28861882846FFF742
:1030A000A6FEE1882846FFF795FE70BD2DE9F041A8
:1030B00005460C4600260127608808B9022600E074
:1030C0000026A088012801D1022700E001272088DE
:1030D000A0B92389A28861882846FFF766FFE188A6
:1030E0002846FFF759FF23893A4631462846FFF71D
:1030F00012FFE1882846FFF701FF13E02389A28829
:1031000061882846FFF707FFE1882846FFF7F6FEAB
:1031100023893A4631462846FFF747FFE18828468B
:10312000FFF73AFFBDE8F0810A884B881A438B8885
:103130001A43CB881A430B891A434B891A438B894C
:103140001A43A0F8442070474FF6FF718180002198
:103150000180C1804180017270470021018041805F
:103160008180C180018141818181C18170470021BD
:1031700001804180012181800021C180018170474F
:103180000021018041808180C18001814181818154
:1031900070470000002C0140003401400004004052
:1031A00000080040000C004021B1028842F00102FA
:1031B000028004E002884FF6FE731A4002807047D6
:1031C00031B1B0F8442042F40042A0F8442005E0B8
:1031D000B0F84420C2F30E02A0F8442070471AB1A0
:1031E00083890B43838102E083898B43838170470A
:1031F0008182704741EA0203A0F8483070471AB153
:1032000083890B43838102E083898B4383817047E9
:1032100001894FF6F8721140018170470A4600217A
:1032200001894FF68F73194011430181704730B502
:1032300004460D4629462046FFF7F0FF208940F05E
:103240000700208130BD2DE9F04104460D461646A9
:103250001F46602D06D13B46012231462046FFF72E
:103260005AFE05E03B46012231462046FFF79DFE0F
:1032700029462046FFF7D2FF208940F00700208131
:10328000BDE8F08130B50C4600210189C9B24FF686
:10329000FF7505EA0325154325432943018130BD08
:1032A0002DE9F04105460E46174698460024434650
:1032B0003A4631462846FFF7E5FF2C894FF6F8706D
:1032C000044044F007044FF68F70044044F070044B
:1032D0002C81BDE8F081F0B504460D4616461F4628
:1032E0003B46324629462046FFF7CCFF208940F472
:1032F00080402081F0BD0185828270470A4600210E
:1033000001884FF68F731940114301807047F0B563
:103310000C4615461E460021002200230189028B1F
:10332000038C4FF6F877394021434FF6FC473A407B
:1033300040F201173A434FF6DD773B404FF6FF77F7
:1033400007EA06172F433B43018102830384F0BD44
:103350000A460021018B4FF68F73194011430183F8
:1033600070470A460021018B48F6FF7319404FF65B
:10337000FF7303EA02231943018370470A460021C1
:10338000818B4FF68F7319401143818370470A4632
:103390000021818B48F6FF7319404FF6FF7303EA53
:1033A000022319438183704721B1028842F08002D1
:1033B000028004E002884FF67F731A400280704753
:1033C00021B1828842F00402828004E082884FF6B4
:1033D000FB731A408280704721B1828842F0080254
:1033E000828004E082884FF6F7731A40828070472B
:1033F00021B1828842F00102828004E082884FF687
:10340000FE731A40828070470A460021018B4FF6F6
:10341000F77319401143018370470A460021018B5D
:103420004FF2FF7319404FF6FF7303EA022319436B
:10343000018370470A460021818B4FF6F7731940CC
:103440001143818370470A460021818B4FF2FF733D
:1034500019404FF6FF7303EA022319438183704733
:103460000A460021018B4FF6FB731940114301837B
:1034700070470A460021018B4FF6FF3319404FF683
:10348000FF7303EA02231943018370470A460021B0
:10349000818B4FF6FB7319401143818370470A46B5
:1034A0000021818B4FF6FF3319404FF6FF7303EA7B
:1034B00002231943818370470A460021018B4FF68E
:1034C0007F7319401143018370470A460021018B25
:1034D000C1F30E014FF6FF7303EA02231943018380
:1034E00070470A460021818B4FF67F7319401143C4
:1034F000818370470A460021818BC1F30E014FF68C
:10350000FF7303EA02231943818370470A460021AF
:10351000018C4FF6FD7319401143018470470A4630
:103520000021018C4FF6F773194011430184704755
:103530000A460021018C4FF6DF7319404FF6FF73E6
:1035400003EA02131943018470470A460021018CE3
:103550004FF67F7319404FF6FF7303EA02131943C6
:10356000018470470A460021018C4FF6FF53194031
:103570004FF6FF7303EA02231943018470470A469A
:103580000021018C4FF2FF7319404FF6FF7303EADD
:1035900002231943018470470A460021018C4DF62D
:1035A000FF7319404FF6FF7303EA02331943018496
:1035B000704730B5002301248C40A3B2048C9C4397
:1035C0000484048C02FA01F5ADB22C43048430BDAE
:1035D00030B5002304248C40A3B2048C9C430484A3
:1035E000048C02FA01F5ADB22C43048430BD70B5F1
:1035F0000346002000241846183001258D40ACB247
:103600001D8CA5431D8409B1082909D100EB610077
:10361000056825F0700505600568154305600EE036
:103620000D1FC5F34E052844056825F4E0450560E7
:1036300005684FF6FF7606EA02263543056070BD41
:1036400021B1028842F00202028004E002884FF6B3
:10365000FD731A400280704721B1028842F00402D3
:10366000028004E002884FF6FB731A400280704724
:1036700021B1828842F08002828004E082884FF685
:103680007F731A408280704702884FF6F7731A40A2
:10369000028002880A430280704782884FF68F7347
:1036A0001A40828082880A438280704702894FF6DE
:1036B000F8731A40028102890A4302817047028925
:1036C0004FF67F731A40028102890A4302817047D4
:1036D0008184704781857047818670470187704774
:1036E00081877047A0F84010704702884FF6FF436B
:1036F0001A40028002880A43028070470146888E81
:1037000070470146088F70470146888F7047014611
:10371000B1F8400070470146888C70470146088D1B
:10372000704702460020138A0B400BB1012000E0D5
:1037300000207047CA430282704730B5024600201D
:1037400000230024158A05EA0103958905EA01048E
:1037500013B10CB1012000E0002030BDCA43028249
:10376000704770477047704770477047754600F064
:1037700029F8AE4605006946534620F00700854605
:1037800018B020B5FDF7E4FDBDE820404FF000067D
:103790004FF000074FF000084FF0000B21F0070139
:1037A000AC46ACE8C009ACE8C009ACE8C009ACE87C
:1037B000C0098D4670470446AFF300802046FCF7F1
:1037C000FEFC000000487047AC01002090EA010FA9
:1037D00048BF81F0004100F17882421A3CBF801A54
:1037E00089184FEAD0524FF07F4C1CEA410FA2EBF0
:1037F000D15318BF9CEA026F00F03B804FF0004CA1
:103800004CEA00204CEA012121FA03FC10EB0C0CDD
:103810001ED202F1FF325FEA1C2040EBC25038BFDB
:1038200070471CF07F0F4FEA400C18BFBCF17F4F70
:1038300038BF7047C3F12003994008BF20F0010052
:10384000BCF17F4F38BF7047A0F1C04000F031BAE3
:103850004FEA3C00000A40EBC25028BF1CF0FF0FAB
:103860004FEA400CE6D018BFBCF17F4F38BF70471D
:10387000EAE79CEA026F05D010EA5C0F08BF00F08F
:103880000040704710B500F0CEF900BF64FBBE3EAB
:10389000401058BFC0F14040491058BFC1F14041ED
:1038A0008142EFF3008070474FF47F0C1CEAD01286
:1038B0001EBF1CEAD11392EA0C0F93EA0C0F00F022
:1038C000858090EA010F48BF42F4807240F4000CFA
:1038D00041F400002CF07F4120F07F4000B5814290
:1038E000A2EB03020FF2081CACEB504EC0F100003B
:1038F0009EF800E04FEA4E0E00FB0EFC38BF490078
:103900004FEA2C1C02F5FA020CFB0EF34FEACE1E16
:103910004FEA112C4FEAC1210EEB635E42EB2242CB
:103920000EFB0CFC4FEA1C5300FB03114FEA112C59
:103930004FEA01310EFB0CFC4FEADC4C00FB0C1192
:10394000C14228BF09184CEB03335DF804EB10EBC0
:10395000410143EBC250B2F57C0F38BF704729D507
:1039600012F0F00F1CBF00F1C04000F000407047A3
:10397000008182838485868788898B8C8D8E8F9148
:103980009293959697999A9C9D9FA0A2A3A5A7A86C
:10399000AAACAEB0B2B3B5B7B9BCBEC0C2C5C7C998
:1039A000CCCED1D4D7D9DCDFE2E6E9ECF0F3F7FAFC
:1039B000FE0000004FEA400C0CF1807CBCF17E4F11
:1039C00028BF7047B0F1C04000F073B990EA010F12
:1039D0000CEAD11348BF42F48072624538BF634598
:1039E00007D213F47F0F16D080EA010000F00040E8
:1039F000704710B500F017F9097EFC3E00F005B8DD
:103A000080EA010000F00040704780EA010000F009
:103A1000004000F04EB912F47F0F04BF0248704717
:103A200080EA010000F045B90000C07F41000B0EA4
:103A3000D3F19E0208D950F400034FEA032323FA7E
:103A400002F048BF4042704710B500F0ECF800BFEC
:103A500049922480002070476FF0004282EA2000E3
:103A60007047000010F0004148BF4042B0FA80F3B8
:103A700010FA03F2C3F19D030BD051EAC35101EBDD
:103A80001220530638BF704700F1010008BF20F034
:103A900001007047B0FA80F310FA03F2C3F19D03FE
:103AA0000AD0D90501EB1220530638BF704700F148
:103AB000010008BF20F001007047000050EA010C2F
:103AC00000F113801CF5000F58BFBCF5000F01D4A6
:103AD0008842704707D710F5000F58BF11F5000F47
:103AE00015D488427047894270471CF5000F04D5F1
:103AF000BCF5000FF7D5814270474FF0807C1CEB7E
:103B0000400F38BF1CEB410F01D28142704710B506
:103B100000F089F8922449004FF000504FF0805196
:103B2000FFF7B6BE4FF47F0C1CEAD0121EBF1CEA92
:103B3000D11392EA0C0F93EA0C0F00F0478090EA41
:103B4000010F48BF42F480724FF0004C4CEA002055
:103B50004CEA012102EB0302A0FB0113A2F50002D3
:103B6000002918BF43F001035B0028BF4FEA33036D
:103B700042EB22425FEA132C4CEBC2502EBFBCEB4F
:103B8000436FB2F57C0F70474FEA036CBCF1004FF6
:103B900008BF20F00100B2F57C0F38BF70470BD58D
:103BA00082F0FF0212F5803FC8BF704700F1C040AD
:103BB000D8BF00F00040704700F5000C5FEA4C0CE5
:103BC00048BF7047B0F1C04000F073B890EA010FF1
:103BD0000CEAD11348BF42F48072624538BF634596
:103BE00004D280EA010000F00040704710B500F0F8
:103BF0001AF800BF8900013E00F007B800F009B8CC
:103C00005FEA410C5FEA1C6C08D080EA010000F01A
:103C100050B85FEA400C5FEA1C6CF6D14FF00040F0
:103C2000A0F5800070470EF1020E2EF0030E5EF834
:103C3000044B244204D44FEA4102B2F17F4F11D821
:103C40004FEA4003B3F17F4F0CD80ED14FEAD07C3E
:103C5000B2F17F4F0CEB4C0C0CF1020C08BF4CEB9B
:103C6000D17C04E04FF0080C01E04FEAD17C0CEB72
:103C70004C0324FA03F404F00704B4F1040C06D254
:103C80000EEB840CBDE810404CF0010C6047DFE8FF
:103C90000CF0070802024FF00040A0F5800010BDB4
:103CA0000846420018BFD2F1807288BF00F0004081
:103CB00010BDFF2141EAD050C005704790EA010FC6
:103CC00048BF81F000413FF588AD421A04D882F028
:103CD0000042A0EB020011444FEAD0524FF07F4C5B
:103CE0001CEA410FA2EBD15318BF9CEA026F4AD0E5
:103CF0004FF0004C4CEA00204CEA012121FA03FC71
:103D0000B0EB0C0C0FD412F0FE0F36D05FEA4C0073
:103D10001DD5001240EBC25038BF70471CF03F0F5A
:103D200018BF70470BE0A2F101025FEA1C2040EBD4
:103D3000C25038BF70471CF07F0F18BF7047C3F1E7
:103D40002003994014BF401E20F0010070478008F6
:103D50004FEA122308BF7047B0FA80FCA2EB0C02B6
:103D6000CCF1280C60FA0CF093EA122F04BF00EBA0
:103D7000C25070474FEAC3707047130A5FEADC1005
:103D800008BF7047F6E79CEA026F04D010EA5C0FA8
:103D900008BF0020704710B5FFF745FF40DFF63E33
:103DA00081F0004070470000C83D0008000000207E
:103DB0003C0000006C010008043E00083C000020AC
:103DC000D40700008801000800A24A040000000097
:103DD00000000000010203040607080900000000BB
:103DE00000000100000000000000000000000000D2
:103DF000000001020304010203040607080902048B
:043E000006080000B0
:0400000508000131BD
:00000001FF
